{
  "abi": [
    {
      "inputs": [],
      "stateMutability": "nonpayable",
      "type": "constructor"
    },
    {
      "inputs": [],
      "name": "ALICE_DATA",
      "outputs": [
        {
          "internalType": "bytes32",
          "name": "",
          "type": "bytes32"
        }
      ],
      "stateMutability": "view",
      "type": "function"
    },
    {
      "inputs": [],
      "name": "BOB_DATA",
      "outputs": [
        {
          "internalType": "bytes32",
          "name": "",
          "type": "bytes32"
        }
      ],
      "stateMutability": "view",
      "type": "function"
    },
    {
      "inputs": [],
      "name": "alice_age",
      "outputs": [
        {
          "internalType": "uint256",
          "name": "",
          "type": "uint256"
        }
      ],
      "stateMutability": "view",
      "type": "function"
    },
    {
      "inputs": [],
      "name": "bob_age",
      "outputs": [
        {
          "internalType": "uint256",
          "name": "",
          "type": "uint256"
        }
      ],
      "stateMutability": "view",
      "type": "function"
    },
    {
      "inputs": [
        {
          "internalType": "bytes32",
          "name": "_hash",
          "type": "bytes32"
        }
      ],
      "name": "checkthehash",
      "outputs": [
        {
          "internalType": "bool",
          "name": "",
          "type": "bool"
        }
      ],
      "stateMutability": "view",
      "type": "function"
    },
    {
      "inputs": [],
      "name": "firstUser",
      "outputs": [
        {
          "internalType": "string",
          "name": "",
          "type": "string"
        }
      ],
      "stateMutability": "view",
      "type": "function"
    },
    {
      "inputs": [
        {
          "internalType": "bytes32",
          "name": "key1",
          "type": "bytes32"
        },
        {
          "internalType": "bytes32",
          "name": "key2",
          "type": "bytes32"
        }
      ],
      "name": "hash",
      "outputs": [
        {
          "internalType": "bytes32",
          "name": "",
          "type": "bytes32"
        }
      ],
      "stateMutability": "pure",
      "type": "function"
    },
    {
      "inputs": [],
      "name": "secondUser",
      "outputs": [
        {
          "internalType": "string",
          "name": "",
          "type": "string"
        }
      ],
      "stateMutability": "view",
      "type": "function"
    }
  ],
  "bytecode": "60c06040526005608081905264414c49434560d81b60a090815261002691600091906100e8565b50601860015567515778705932554b60c01b60038181556002546040805160208082019390935280820194909452805180850382018152606085018083528151919093012060045560a084019052819052622127a160e91b6080909201918252610092916005916100e8565b50601560065565516d3969436760d01b600881905560075460408051602080820193909352808201939093528051808403820181526060909301905281519101206009553480156100e257600080fd5b506101bc565b8280546100f490610181565b90600052602060002090601f016020900481019282610116576000855561015c565b82601f1061012f57805160ff191683800117855561015c565b8280016001018555821561015c579182015b8281111561015c578251825591602001919060010190610141565b5061016892915061016c565b5090565b5b80821115610168576000815560010161016d565b600181811c9082168061019557607f821691505b602082108114156101b657634e487b7160e01b600052602260045260246000fd5b50919050565b610324806101cb6000396000f3fe608060405234801561001057600080fd5b50600436106100885760003560e01c8063a803c4731161005b578063a803c4731461011a578063ace674eb14610123578063df7ad4861461012c578063f0a16b9b1461013557600080fd5b806335c577081461008d578063412f9cac146100b557806388da70ec146100fd5780638bf9344114610112575b600080fd5b6100a061009b366004610223565b61013e565b60405190151581526020015b60405180910390f35b6100ef6100c336600461023c565b604080516020808201949094528082019290925280518083038201815260609092019052805191012090565b6040519081526020016100ac565b610105610188565b6040516100ac919061025e565b610105610216565b6100ef60085481565b6100ef60035481565b6100ef60015481565b6100ef60065481565b6000610175600454600954604080516020808201949094528082019290925280518083038201815260609092019052805191012090565b821461018057600080fd5b506001919050565b60008054610195906102b3565b80601f01602080910402602001604051908101604052809291908181526020018280546101c1906102b3565b801561020e5780601f106101e35761010080835404028352916020019161020e565b820191906000526020600020905b8154815290600101906020018083116101f157829003601f168201915b505050505081565b60058054610195906102b3565b60006020828403121561023557600080fd5b5035919050565b6000806040838503121561024f57600080fd5b50508035926020909101359150565b600060208083528351808285015260005b8181101561028b5785810183015185820160400152820161026f565b8181111561029d576000604083870101525b50601f01601f1916929092016040019392505050565b600181811c908216806102c757607f821691505b602082108114156102e857634e487b7160e01b600052602260045260246000fd5b5091905056fea264697066735822122037de12e2edd8178a1be33f02b58f49c3455eae383015e00036344cf1029ff29764736f6c63430008070033",
  "bytecodeSha1": "14c032f4cef83228ab222737464f7f07f92380b7",
  "compiler": {
    "evm_version": "istanbul",
    "optimizer": {
      "enabled": true,
      "runs": 200
    },
    "version": "0.8.7+commit.e28d00a7"
  },
  "contractName": "Confidential",
  "language": "Solidity",
  "natspec": {
    "kind": "dev",
    "methods": {},
    "version": 1
  },
  "opcodes": "PUSH1 0x80 PUSH1 0x40 MSTORE CALLVALUE DUP1 ISZERO PUSH2 0x10 JUMPI PUSH1 0x0 DUP1 REVERT JUMPDEST POP PUSH1 0x4 CALLDATASIZE LT PUSH2 0x88 JUMPI PUSH1 0x0 CALLDATALOAD PUSH1 0xE0 SHR DUP1 PUSH4 0xA803C473 GT PUSH2 0x5B JUMPI DUP1 PUSH4 0xA803C473 EQ PUSH2 0x11A JUMPI DUP1 PUSH4 0xACE674EB EQ PUSH2 0x123 JUMPI DUP1 PUSH4 0xDF7AD486 EQ PUSH2 0x12C JUMPI DUP1 PUSH4 0xF0A16B9B EQ PUSH2 0x135 JUMPI PUSH1 0x0 DUP1 REVERT JUMPDEST DUP1 PUSH4 0x35C57708 EQ PUSH2 0x8D JUMPI DUP1 PUSH4 0x412F9CAC EQ PUSH2 0xB5 JUMPI DUP1 PUSH4 0x88DA70EC EQ PUSH2 0xFD JUMPI DUP1 PUSH4 0x8BF93441 EQ PUSH2 0x112 JUMPI JUMPDEST PUSH1 0x0 DUP1 REVERT JUMPDEST PUSH2 0xA0 PUSH2 0x9B CALLDATASIZE PUSH1 0x4 PUSH2 0x223 JUMP JUMPDEST PUSH2 0x13E JUMP JUMPDEST PUSH1 0x40 MLOAD SWAP1 ISZERO ISZERO DUP2 MSTORE PUSH1 0x20 ADD JUMPDEST PUSH1 0x40 MLOAD DUP1 SWAP2 SUB SWAP1 RETURN JUMPDEST PUSH2 0xEF PUSH2 0xC3 CALLDATASIZE PUSH1 0x4 PUSH2 0x23C JUMP JUMPDEST PUSH1 0x40 DUP1 MLOAD PUSH1 0x20 DUP1 DUP3 ADD SWAP5 SWAP1 SWAP5 MSTORE DUP1 DUP3 ADD SWAP3 SWAP1 SWAP3 MSTORE DUP1 MLOAD DUP1 DUP4 SUB DUP3 ADD DUP2 MSTORE PUSH1 0x60 SWAP1 SWAP3 ADD SWAP1 MSTORE DUP1 MLOAD SWAP2 ADD KECCAK256 SWAP1 JUMP JUMPDEST PUSH1 0x40 MLOAD SWAP1 DUP2 MSTORE PUSH1 0x20 ADD PUSH2 0xAC JUMP JUMPDEST PUSH2 0x105 PUSH2 0x188 JUMP JUMPDEST PUSH1 0x40 MLOAD PUSH2 0xAC SWAP2 SWAP1 PUSH2 0x25E JUMP JUMPDEST PUSH2 0x105 PUSH2 0x216 JUMP JUMPDEST PUSH2 0xEF PUSH1 0x8 SLOAD DUP2 JUMP JUMPDEST PUSH2 0xEF PUSH1 0x3 SLOAD DUP2 JUMP JUMPDEST PUSH2 0xEF PUSH1 0x1 SLOAD DUP2 JUMP JUMPDEST PUSH2 0xEF PUSH1 0x6 SLOAD DUP2 JUMP JUMPDEST PUSH1 0x0 PUSH2 0x175 PUSH1 0x4 SLOAD PUSH1 0x9 SLOAD PUSH1 0x40 DUP1 MLOAD PUSH1 0x20 DUP1 DUP3 ADD SWAP5 SWAP1 SWAP5 MSTORE DUP1 DUP3 ADD SWAP3 SWAP1 SWAP3 MSTORE DUP1 MLOAD DUP1 DUP4 SUB DUP3 ADD DUP2 MSTORE PUSH1 0x60 SWAP1 SWAP3 ADD SWAP1 MSTORE DUP1 MLOAD SWAP2 ADD KECCAK256 SWAP1 JUMP JUMPDEST DUP3 EQ PUSH2 0x180 JUMPI PUSH1 0x0 DUP1 REVERT JUMPDEST POP PUSH1 0x1 SWAP2 SWAP1 POP JUMP JUMPDEST PUSH1 0x0 DUP1 SLOAD PUSH2 0x195 SWAP1 PUSH2 0x2B3 JUMP JUMPDEST DUP1 PUSH1 0x1F ADD PUSH1 0x20 DUP1 SWAP2 DIV MUL PUSH1 0x20 ADD PUSH1 0x40 MLOAD SWAP1 DUP2 ADD PUSH1 0x40 MSTORE DUP1 SWAP3 SWAP2 SWAP1 DUP2 DUP2 MSTORE PUSH1 0x20 ADD DUP3 DUP1 SLOAD PUSH2 0x1C1 SWAP1 PUSH2 0x2B3 JUMP JUMPDEST DUP1 ISZERO PUSH2 0x20E JUMPI DUP1 PUSH1 0x1F LT PUSH2 0x1E3 JUMPI PUSH2 0x100 DUP1 DUP4 SLOAD DIV MUL DUP4 MSTORE SWAP2 PUSH1 0x20 ADD SWAP2 PUSH2 0x20E JUMP JUMPDEST DUP3 ADD SWAP2 SWAP1 PUSH1 0x0 MSTORE PUSH1 0x20 PUSH1 0x0 KECCAK256 SWAP1 JUMPDEST DUP2 SLOAD DUP2 MSTORE SWAP1 PUSH1 0x1 ADD SWAP1 PUSH1 0x20 ADD DUP1 DUP4 GT PUSH2 0x1F1 JUMPI DUP3 SWAP1 SUB PUSH1 0x1F AND DUP3 ADD SWAP2 JUMPDEST POP POP POP POP POP DUP2 JUMP JUMPDEST PUSH1 0x5 DUP1 SLOAD PUSH2 0x195 SWAP1 PUSH2 0x2B3 JUMP JUMPDEST PUSH1 0x0 PUSH1 0x20 DUP3 DUP5 SUB SLT ISZERO PUSH2 0x235 JUMPI PUSH1 0x0 DUP1 REVERT JUMPDEST POP CALLDATALOAD SWAP2 SWAP1 POP JUMP JUMPDEST PUSH1 0x0 DUP1 PUSH1 0x40 DUP4 DUP6 SUB SLT ISZERO PUSH2 0x24F JUMPI PUSH1 0x0 DUP1 REVERT JUMPDEST POP POP DUP1 CALLDATALOAD SWAP3 PUSH1 0x20 SWAP1 SWAP2 ADD CALLDATALOAD SWAP2 POP JUMP JUMPDEST PUSH1 0x0 PUSH1 0x20 DUP1 DUP4 MSTORE DUP4 MLOAD DUP1 DUP3 DUP6 ADD MSTORE PUSH1 0x0 JUMPDEST DUP2 DUP2 LT ISZERO PUSH2 0x28B JUMPI DUP6 DUP2 ADD DUP4 ADD MLOAD DUP6 DUP3 ADD PUSH1 0x40 ADD MSTORE DUP3 ADD PUSH2 0x26F JUMP JUMPDEST DUP2 DUP2 GT ISZERO PUSH2 0x29D JUMPI PUSH1 0x0 PUSH1 0x40 DUP4 DUP8 ADD ADD MSTORE JUMPDEST POP PUSH1 0x1F ADD PUSH1 0x1F NOT AND SWAP3 SWAP1 SWAP3 ADD PUSH1 0x40 ADD SWAP4 SWAP3 POP POP POP JUMP JUMPDEST PUSH1 0x1 DUP2 DUP2 SHR SWAP1 DUP3 AND DUP1 PUSH2 0x2C7 JUMPI PUSH1 0x7F DUP3 AND SWAP2 POP JUMPDEST PUSH1 0x20 DUP3 LT DUP2 EQ ISZERO PUSH2 0x2E8 JUMPI PUSH4 0x4E487B71 PUSH1 0xE0 SHL PUSH1 0x0 MSTORE PUSH1 0x22 PUSH1 0x4 MSTORE PUSH1 0x24 PUSH1 0x0 REVERT JUMPDEST POP SWAP2 SWAP1 POP JUMP INVALID LOG2 PUSH5 0x6970667358 0x22 SLT KECCAK256 CALLDATACOPY 0xDE SLT 0xE2 0xED 0xD8 OR DUP11 SHL 0xE3 EXTCODEHASH MUL 0xB5 DUP16 0x49 0xC3 GASLIMIT 0x5E 0xAE CODESIZE ADDRESS ISZERO 0xE0 STOP CALLDATASIZE CALLVALUE 0x4C CALL MUL SWAP16 CALLCODE SWAP8 PUSH5 0x736F6C6343 STOP ADDMOD SMOD STOP CALLER ",
  "sha1": "c379e6f549368dbb9aa9e2f94d2371e3b03eb8b7",
  "source": "// SPDX-License-Identifier: MIT\npragma solidity 0.8.7;\n\n// https://goerli.etherscan.io/address/0xf8e9327e38ceb39b1ec3d26f5fad09e426888e66\n\ncontract Confidential {\n    string public firstUser = \"ALICE\";\n    uint public alice_age = 24;\n    bytes32 private ALICE_PRIVATE_KEY; //Super Secret Key\n    bytes32 public ALICE_DATA = \"QWxpY2UK\";\n    bytes32 private aliceHash = hash(ALICE_PRIVATE_KEY, ALICE_DATA);\n\n    string public secondUser = \"BOB\";\n    uint public bob_age = 21;\n    bytes32 private BOB_PRIVATE_KEY; // Super Secret Key\n    bytes32 public BOB_DATA = \"Qm9iCg\";\n    bytes32 private bobHash = hash(BOB_PRIVATE_KEY, BOB_DATA);\n\n    constructor() {}\n\n    function hash(bytes32 key1, bytes32 key2) public pure returns (bytes32) {\n        return keccak256(abi.encodePacked(key1, key2));\n    }\n\n    function checkthehash(bytes32 _hash) public view returns (bool) {\n        require(_hash == hash(aliceHash, bobHash));\n        return true;\n    }\n}\n",
  "sourcePath": "contracts/Confidential.sol",
  "type": "contract"
}